:060000000A128A11F82F1C
:100E1000F000700883120313930008008316031375
:100E2000141C132F142F0E2F08000A128A110E27DC
:100E30000A128A118312031313080800F3008316A1
:100E400003138712731D252F262F2A2F7208940053
:100E500087152E2F7008720494008711730871048F
:100E60008312031394000800831603178801890175
:100E7000831603138501860109108312031385016C
:100E8000860101308900F001F101F20120300A12DF
:100E90008A111E270A128A118B170B170800F200FD
:100EA000702F831603130F088F3940388F00862F59
:100EB000831603130F088F3950388F00862F83163F
:100EC00003130F088F3960388F00862F7030831618
:100ED00003138F04862F7030831603138F04862F1D
:100EE0007208F000F1017108003A0319782F6B2F96
:100EF0007008013A0319512F033A0319582F063A83
:100F000003195F2F0C3A0319662F6B2F0F1408007B
:100F100001300A128A114F270A128A110A128A1105
:100F200034270A128A118312031309105330F40074
:100F3000F40B982F48300A128A1108270A128A11D6
:100F40007708031DA42FA52FB72F0A128A11152782
:100F50000A128A11F4007408F600F701F70A5330F8
:100F6000F400F40BB12F831203130910C62F0A12D9
:100F70008A1115270A128A11F4007408F8005330F8
:100F8000F400F40BC12F8312031309102130F50074
:100F90007630F400F40BCA2FF50BCA2F0000831231
:100FA000031309104C300A128A1108270A128A11F9
:100FB0000A128A1115270A128A11F4007408F9001E
:100FC0005330F400F40BE22F831203130914790851
:100FD0008500780886002130F5007630F400F40BA7
:100FE000EF2FF50BEF2F0000932F0A128A11002824
:100FF000F601F701F801F90183010A128A11882F1D
:08400000FF3FFF3FFF3FFF3FC0
:04400E00D420FF3F7C
:00000001FF
